:1000000032C14CC14BC14AC193C148C147C146C16D
:1000100045C144C143C167C141C140C13FC13EC1A7
:100020003DC13CC13BC103000000000001FD0000D8
:10003000000005E0C000E0C00524FF24FF240512F5
:100040002A7F2A240563640813630576899562056F
:1000500001E00000000004003C42810004008142F5
:100060003C0005222CF02C220508083E0808030756
:100070001C1000000508080808080203030000001F
:100080000503061860C0057E8991A17E040041FF2A
:10009000010005438589916105428191916E0518A2
:1000A0002848FF0805F29191918E051E29498986FD
:1000B00005808F90A0C0056E9191916E0570898921
:1000C0008A7C026C6C00000003036E680000040868
:1000D00014224100051414141414044122140800BD
:1000E0000560808D90600566898F817E053F488818
:1000F000483F05FF9191916E057E8181814205FF08
:100100008181423C05FF9191918105FF9090908003
:10011000057E8189894E05FF101010FF058181FF42
:1001200081810506010101FE05FF1824428105FFBA
:100130000101010105FF403040FF05FF403008FF8D
:10014000057E8181817E05FF88888870057E818596
:10015000827D05FF888C8A7105619191918E058061
:1001600080FF808005FE010101FE05F00C030CF00C
:1001700005FF020C02FF05C3241824C305E0100F7D
:1001800010E005838599A1C103FF8181000005C0AE
:1001900060180603038181FF000005204080402095
:1001A00005010101010102C07000000005062929B6
:1001B000291F05FF0911110E051E21212112050E0F
:1001C000111109FF050E1515150C05087F888040D3
:1001D00005304949497E05FF0810100F015F0000F6
:1001E000000004020121BE0004FF040A1100040003
:1001F00081FF0100053F2018201F053F1020201F10
:10020000050E1111110E053F24242418051028286D
:10021000183F051F081010080509151515020520BF
:10022000FE210102051E0101021F051C0201021C24
:10023000051E010E011E05110A040A1105003905EB
:10024000053E05111315191103106E81000001FF01
:100250000000000003816E10000004408040800018
:1002600005FFFFFFFFFF11241FBECFE5D4E0DEBF77
:10027000CDBF10E0A0E6B0E0ECEDF8E002C00590E4
:100280000D92A637B107D9F710E0A6E7B0E001C09C
:100290001D92AA3CB107E1F7EED01EC3B1CEF8948F
:1002A0009091880080918900981719F42FEF3FEF03
:1002B00013C0E0918900F0E0E858FF4F8081282FBB
:1002C00030E0809189008F5F809389008091890060
:1002D000803111F41092890078948FEF2F3F380706
:1002E000F1F2C90108951F920F920FB60F921124D7
:1002F0008F939F93EF93FF93E0918800F0E08CB190
:10030000E858FF4F8083909188009F5F903109F4F7
:1003100090E080918900981711F090938800FF91E8
:10032000EF919F918F910F900FBE0F901F90189596
:100330001F920F920FB60F9211248F938091770026
:10034000882329F0809177008150809377008F91E6
:100350000F900FBE0F901F901895EF92FF920F9382
:100360001F93CF93DF937C019091760089E2989F51
:100370008001112400501040C0E0D0E0C80193D2A9
:10038000F701EC0FFD1F808321960F5F1F4FC832CE
:10039000D105A1F7F70110A6CDB7DEB7E6E074C22C
:1003A000EF92FF920F931F93E82E01E00DC0802F74
:1003B000612F95D1482F8F2D612FECD11F5F183001
:1003C000B1F70F5F003221F010E0F02EFA94EFCF7A
:1003D000EE2041F010E08FE1612F40E0DBD11F5FA4
:1003E0001830C9F71F910F91FF90EF900895A0E08A
:1003F000B0E0ECEFF1E02AC2982FC62E8052803692
:1004000008F09FE786E0989FC0011124FC01EA599B
:10041000F040E491EC01C959D0407C01EE0EF11C92
:1004200087E69FEFE80EF91E16C080E0B9DFFE01F7
:10043000D49010E000E8402F4D218FE1612FAAD128
:1004400006951F5F1830B9F7C0927700809177004A
:100450008823E1F72196CE15DF0539F781E0A0DF8B
:1004600082E080937700809177008823E1F7CDB711
:10047000DEB7E8E007C2A4E5B0E0E0E4F2E0DCC10A
:1004800081B38F7181BB82B3806E82BBB9D176D1CB
:1004900082B5886082BD82E085BD89B7806489BFEE
:1004A000789410928900809189008093880082E07E
:1004B0008BB988E98AB986E880BD10BC8CE089B91F
:1004C0008E010F5F1F4FC80148DF48015AE3252EF8
:1004D0004AE2442E512C4C0E5D1E3CE2A32EB12C60
:1004E000AC0EBD1E29E2622E90E2392EF894909156
:1004F000880080918900981719F42FEF3FEF13C0FF
:10050000E0918900F0E0E858FF4F8081282F30E02B
:10051000809189008F5F809389008091890080316C
:1005200011F4109289007894C901C197089728F4B2
:10053000822F81538093760082C02A32310509F0E0
:1005400080C0E0E6F0E004C05D9BFECF8CB9319640
:1005500080818823C9F7A3DE9C01C197089708F022
:1005600070C08FEC782E720E2AA72BA61CA6EE2444
:1005700005D1E8E6F0E004C05D9BFECF8CB9319672
:1005800080818823C9F7F20104C05D9BFECF8CB93E
:10059000319680818823C9F7FF240E2D10E0680171
:1005A0000894C11CD11C06C0E40DF51D808160E0DB
:1005B0001EDFF394EF2DF0E0CE16DF06ACF76FDE12
:1005C0009C018D30910529F4769C6001112410E086
:1005D00028C08B319105A9F18830910571F4EE2086
:1005E00061F0EAE6F0E004C05D9BFECF8CB9319685
:1005F00080818823C9F7EA940FC0C90180978036AB
:10060000910508F0B5CF87E28E1508F4B1CF0A0D39
:100610001B1DF8012083E394F501EE0DF11D1082FE
:10062000A7CFE12FF0E0CF018C0D9D1DEA0DFB1D42
:100630008050904060813FD11F5FE11690F7C40168
:100640008CDE20916D0027FD0DC0879B0BC0809133
:1006500076008F5F80937600883011F410927600D8
:1006600091E001C090E026FD0CC0869B0AC08091FD
:100670007600882311F487E001C0815080937600D2
:1006800091E080B380936D00992311F0C40165DE81
:1006900010E003C062E0ABDE1F5FF401E10FF11D6B
:1006A00080818823B9F73092770080917700882382
:1006B000E1F780E262E09BDE80E262E098DE80E2C9
:1006C00062E095DE80E262E092DE80E262E08FDE50
:1006D00080E262E08CDE80E262E089DE07CF482FB4
:1006E00050E0887F860F880F42FD8F5FE82FF0E093
:1006F000E657FF4F8081409550954370507021E040
:1007000030E002C0220F331F4A95E2F7822308959A
:10071000482F262F332727FD30952150304081E088
:1007200090E002C0880F991F2A95E2F7982F0AC01F
:10073000C498892F842311F0C59A01C0C598C49A22
:10074000969561501616A4F30895CF93DF93C3983E
:1007500085E063E0DDDF80E067E0DADFC0E0D0E085
:10076000FE01E657FF4F808164E0D2DF2196C0345E
:10077000D105B1F7C39ADF91CF91089580E090E061
:10078000FC01E657FF4F1082019680349105C1F7B6
:10079000DCDF08951F93942FE82FF0E0AF01409520
:1007A00050954370507021E030E002C0220F331F9B
:1007B0004A95E2F7182F187F160F110F82FD1F5F61
:1007C000E12FF0E0992329F0E657FF4F8081822B3B
:1007D00005C0E657FF4F8081209582238083C39810
:1007E00085E063E095DF812F67E092DFE12FF0E0A5
:1007F000E657FF4F808164E08BDFC39A1F91089515
:10080000CF93DF93BB9ABC9ABD9AC39AC49AC59AF8
:10081000C39884E063E07CDFCEE6D0E0899168E0B5
:1008200077DF80E061E074DF80E0C537D807B1F79B
:10083000C39ADF91CF9108952F923F924F925F928A
:100840006F927F928F929F92AF92BF92CF92DF92E0
:10085000EF92FF920F931F93CF93DF93CDB7DEB745
:10086000CA1BDB0B0FB6F894DEBF0FBECDBF0994D9
:100870002A88398848885F846E847D848C849B8430
:10088000AA84B984C884DF80EE80FD800C811B813E
:10089000AA81B981CE0FD11D0FB6F894DEBF0FBE6D
:1008A000CDBFED010895E199FECF9FBB8EBBE09ACD
:1008B00099278DB30895262FE199FECF9FBB8EBB5C
:1008C000E09A01970DB2021631F02DBB0FB6F894E5
:0C08D000E29AE19A0FBE0895F894FFCF61
:1008DC0043617267610D0A000D00082000E00020E2
:0608EC00180103A308003F
:00000001FF
